{
  "address": "0x439cC3b078360A354eE0fd9345D77CE951A57Da2",
  "abi": [
    {
      "inputs": [
        {
          "internalType": "address",
          "name": "vrfCoordinatorV2",
          "type": "address"
        },
        {
          "internalType": "uint256",
          "name": "entranceFee",
          "type": "uint256"
        },
        {
          "internalType": "bytes32",
          "name": "gasLane",
          "type": "bytes32"
        },
        {
          "internalType": "uint64",
          "name": "subscriptionId",
          "type": "uint64"
        },
        {
          "internalType": "uint32",
          "name": "callbackGasLimit",
          "type": "uint32"
        },
        {
          "internalType": "uint256",
          "name": "interval",
          "type": "uint256"
        }
      ],
      "stateMutability": "nonpayable",
      "type": "constructor"
    },
    {
      "inputs": [
        {
          "internalType": "address",
          "name": "have",
          "type": "address"
        },
        {
          "internalType": "address",
          "name": "want",
          "type": "address"
        }
      ],
      "name": "OnlyCoordinatorCanFulfill",
      "type": "error"
    },
    {
      "inputs": [],
      "name": "Raffle__FailedToRewardWinner",
      "type": "error"
    },
    {
      "inputs": [],
      "name": "Raffle__NotOpen",
      "type": "error"
    },
    {
      "inputs": [],
      "name": "Raffle__NotSentEnoughEntranceFee",
      "type": "error"
    },
    {
      "inputs": [
        {
          "internalType": "uint256",
          "name": "currBalance",
          "type": "uint256"
        },
        {
          "internalType": "uint256",
          "name": "playersLength",
          "type": "uint256"
        },
        {
          "internalType": "uint256",
          "name": "raffleState",
          "type": "uint256"
        }
      ],
      "name": "Raffle__UpkeepNotNeeded",
      "type": "error"
    },
    {
      "anonymous": false,
      "inputs": [
        {
          "indexed": true,
          "internalType": "address",
          "name": "winner",
          "type": "address"
        }
      ],
      "name": "PickedWinner",
      "type": "event"
    },
    {
      "anonymous": false,
      "inputs": [
        {
          "indexed": true,
          "internalType": "address",
          "name": "player",
          "type": "address"
        }
      ],
      "name": "RaffleEnter",
      "type": "event"
    },
    {
      "anonymous": false,
      "inputs": [
        {
          "indexed": true,
          "internalType": "uint256",
          "name": "reqId",
          "type": "uint256"
        }
      ],
      "name": "RequestedRaffleWinner",
      "type": "event"
    },
    {
      "inputs": [],
      "name": "changeRaffleState",
      "outputs": [],
      "stateMutability": "nonpayable",
      "type": "function"
    },
    {
      "inputs": [
        {
          "internalType": "bytes",
          "name": "",
          "type": "bytes"
        }
      ],
      "name": "checkUpkeep",
      "outputs": [
        {
          "internalType": "bool",
          "name": "upkeepNeeded",
          "type": "bool"
        },
        {
          "internalType": "bytes",
          "name": "",
          "type": "bytes"
        }
      ],
      "stateMutability": "view",
      "type": "function"
    },
    {
      "inputs": [],
      "name": "enterRaffle",
      "outputs": [],
      "stateMutability": "payable",
      "type": "function"
    },
    {
      "inputs": [],
      "name": "getCurrentBalance",
      "outputs": [
        {
          "internalType": "uint256",
          "name": "",
          "type": "uint256"
        }
      ],
      "stateMutability": "view",
      "type": "function"
    },
    {
      "inputs": [],
      "name": "getEntranceFee",
      "outputs": [
        {
          "internalType": "uint256",
          "name": "",
          "type": "uint256"
        }
      ],
      "stateMutability": "view",
      "type": "function"
    },
    {
      "inputs": [],
      "name": "getInterval",
      "outputs": [
        {
          "internalType": "uint256",
          "name": "",
          "type": "uint256"
        }
      ],
      "stateMutability": "view",
      "type": "function"
    },
    {
      "inputs": [],
      "name": "getLatestTimeStamp",
      "outputs": [
        {
          "internalType": "uint256",
          "name": "",
          "type": "uint256"
        }
      ],
      "stateMutability": "view",
      "type": "function"
    },
    {
      "inputs": [],
      "name": "getNumWords",
      "outputs": [
        {
          "internalType": "uint256",
          "name": "",
          "type": "uint256"
        }
      ],
      "stateMutability": "pure",
      "type": "function"
    },
    {
      "inputs": [],
      "name": "getNumberOfPlayers",
      "outputs": [
        {
          "internalType": "uint256",
          "name": "",
          "type": "uint256"
        }
      ],
      "stateMutability": "view",
      "type": "function"
    },
    {
      "inputs": [
        {
          "internalType": "uint256",
          "name": "index",
          "type": "uint256"
        }
      ],
      "name": "getPlayer",
      "outputs": [
        {
          "internalType": "address",
          "name": "",
          "type": "address"
        }
      ],
      "stateMutability": "view",
      "type": "function"
    },
    {
      "inputs": [],
      "name": "getRaffleState",
      "outputs": [
        {
          "internalType": "enum Raffle.RaffleState",
          "name": "",
          "type": "uint8"
        }
      ],
      "stateMutability": "view",
      "type": "function"
    },
    {
      "inputs": [],
      "name": "getRecentWinner",
      "outputs": [
        {
          "internalType": "address",
          "name": "",
          "type": "address"
        }
      ],
      "stateMutability": "view",
      "type": "function"
    },
    {
      "inputs": [
        {
          "internalType": "bytes",
          "name": "",
          "type": "bytes"
        }
      ],
      "name": "performUpkeep",
      "outputs": [],
      "stateMutability": "nonpayable",
      "type": "function"
    },
    {
      "inputs": [
        {
          "internalType": "uint256",
          "name": "requestId",
          "type": "uint256"
        },
        {
          "internalType": "uint256[]",
          "name": "randomWords",
          "type": "uint256[]"
        }
      ],
      "name": "rawFulfillRandomWords",
      "outputs": [],
      "stateMutability": "nonpayable",
      "type": "function"
    }
  ],
  "transactionHash": "0x7e62fe23bc79bc034767c71e8aeaaba8c35bb9bbdaed54fa09aaad267ef3bb68",
  "args": [
    "0x8103B0A8A00be2DDC778e6e7eaa21791Cd364625",
    "10000000000000000",
    "0x474e34a077df58807dbe9c96d3c009b23b3c6d0cce433e59bbf5b34f823bc56c",
    "790",
    "500000",
    "30"
  ],
  "numDeployments": 2,
  "solcInputHash": "e33713d8b59496f0b3af91f95a401f0e",
  "bytecode": "0x6101606040523480156200001257600080fd5b506040516200188b3803806200188b8339818101604052810190620000389190620002a0565b858073ffffffffffffffffffffffffffffffffffffffff1660808173ffffffffffffffffffffffffffffffffffffffff1660601b81525050508573ffffffffffffffffffffffffffffffffffffffff1660e08173ffffffffffffffffffffffffffffffffffffffff1660601b815250508460a081815250508361010081815250508267ffffffffffffffff166101208167ffffffffffffffff1660c01b815250508163ffffffff166101408163ffffffff1660e01b815250506000600160146101000a81548160ff021916908360018111156200011a57620001196200033c565b5b0217905550426002819055508060c081815250505050505050506200036b565b600080fd5b600073ffffffffffffffffffffffffffffffffffffffff82169050919050565b60006200016c826200013f565b9050919050565b6200017e816200015f565b81146200018a57600080fd5b50565b6000815190506200019e8162000173565b92915050565b6000819050919050565b620001b981620001a4565b8114620001c557600080fd5b50565b600081519050620001d981620001ae565b92915050565b6000819050919050565b620001f481620001df565b81146200020057600080fd5b50565b6000815190506200021481620001e9565b92915050565b600067ffffffffffffffff82169050919050565b62000239816200021a565b81146200024557600080fd5b50565b60008151905062000259816200022e565b92915050565b600063ffffffff82169050919050565b6200027a816200025f565b81146200028657600080fd5b50565b6000815190506200029a816200026f565b92915050565b60008060008060008060c08789031215620002c057620002bf6200013a565b5b6000620002d089828a016200018d565b9650506020620002e389828a01620001c8565b9550506040620002f689828a0162000203565b94505060606200030989828a0162000248565b93505060806200031c89828a0162000289565b92505060a06200032f89828a01620001c8565b9150509295509295509295565b7f4e487b7100000000000000000000000000000000000000000000000000000000600052602160045260246000fd5b60805160601c60a05160c05160e05160601c610100516101205160c01c6101405160e01c6114a4620003e76000396000610704015260006106e1015260006106c00152600061068401526000818161080d01526108b501526000818161032c015261045601526000818161039601526103ea01526114a46000f3fe6080604052600436106100dd5760003560e01c8063473f1ddc1161007f57806391ad27b41161005957806391ad27b41461026a578063a574971014610295578063e55ae4e8146102c0578063fd6673f5146102fd576100dd565b8063473f1ddc146101d657806353a2c19a146102015780636e04ff0d1461022c576100dd565b80631fe543e3116100bb5780631fe543e31461014f5780632cfcc53914610178578063320229eb146101825780634585e33b146101ad576100dd565b806309bc33a7146100e2578063115cbaf51461010d5780631e93ffa114610138575b600080fd5b3480156100ee57600080fd5b506100f7610328565b6040516101049190610c25565b60405180910390f35b34801561011957600080fd5b50610122610350565b60405161012f9190610cb7565b60405180910390f35b34801561014457600080fd5b5061014d610367565b005b34801561015b57600080fd5b5061017660048036038101906101719190610e6b565b610394565b005b610180610454565b005b34801561018e57600080fd5b506101976105c3565b6040516101a49190610c25565b60405180910390f35b3480156101b957600080fd5b506101d460048036038101906101cf9190610f22565b6105cd565b005b3480156101e257600080fd5b506101eb6107cc565b6040516101f89190610fb0565b60405180910390f35b34801561020d57600080fd5b506102166107f6565b6040516102239190610c25565b60405180910390f35b34801561023857600080fd5b50610253600480360381019061024e9190611080565b610805565b60405161026192919061116c565b60405180910390f35b34801561027657600080fd5b5061027f6108b1565b60405161028c9190610c25565b60405180910390f35b3480156102a157600080fd5b506102aa6108d9565b6040516102b79190610c25565b60405180910390f35b3480156102cc57600080fd5b506102e760048036038101906102e2919061119c565b6108e1565b6040516102f49190610fb0565b60405180910390f35b34801561030957600080fd5b50610312610928565b60405161031f9190610c25565b60405180910390f35b60007f0000000000000000000000000000000000000000000000000000000000000000905090565b6000600160149054906101000a900460ff16905090565b6000600160146101000a81548160ff0219169083600181111561038d5761038c610c40565b5b0217905550565b7f000000000000000000000000000000000000000000000000000000000000000073ffffffffffffffffffffffffffffffffffffffff163373ffffffffffffffffffffffffffffffffffffffff161461044657337f00000000000000000000000000000000000000000000000000000000000000006040517f1cf993f400000000000000000000000000000000000000000000000000000000815260040161043d9291906111c9565b60405180910390fd5b6104508282610934565b5050565b7f00000000000000000000000000000000000000000000000000000000000000003410156104ae576040517fcd89546f00000000000000000000000000000000000000000000000000000000815260040160405180910390fd5b600060018111156104c2576104c1610c40565b5b600160149054906101000a900460ff1660018111156104e4576104e3610c40565b5b1461051b576040517f1425571c00000000000000000000000000000000000000000000000000000000815260040160405180910390fd5b6000339080600181540180825580915050600190039060005260206000200160009091909190916101000a81548173ffffffffffffffffffffffffffffffffffffffff021916908373ffffffffffffffffffffffffffffffffffffffff1602179055503373ffffffffffffffffffffffffffffffffffffffff167f0805e1d667bddb8a95f0f09880cf94f403fb596ce79928d9f29b74203ba284d460405160405180910390a2565b6000600254905090565b60006105e760405180602001604052806000815250610805565b509050806106565747600080549050600160149054906101000a900460ff16600181111561061857610617610c40565b5b6040517f584327aa00000000000000000000000000000000000000000000000000000000815260040161064d939291906111f2565b60405180910390fd5b60018060146101000a81548160ff0219169083600181111561067b5761067a610c40565b5b021790555060007f000000000000000000000000000000000000000000000000000000000000000073ffffffffffffffffffffffffffffffffffffffff16635d3b1d307f00000000000000000000000000000000000000000000000000000000000000007f000000000000000000000000000000000000000000000000000000000000000060037f000000000000000000000000000000000000000000000000000000000000000060016040518663ffffffff1660e01b81526004016107459594939291906112a1565b602060405180830381600087803b15801561075f57600080fd5b505af1158015610773573d6000803e3d6000fd5b505050506040513d601f19601f820116820180604052508101906107979190611309565b9050807fcd6e45c8998311cab7e9d4385596cac867e20a0587194b954fa3a731c93ce78b60405160405180910390a250505050565b6000600160009054906101000a900473ffffffffffffffffffffffffffffffffffffffff16905090565b6000600163ffffffff16905090565b6000606060007f00000000000000000000000000000000000000000000000000000000000000006002544261083a9190611365565b11905060008060008054905011905060008047119050600080600181111561086557610864610c40565b5b600160149054906101000a900460ff16600181111561088757610886610c40565b5b1490508380156108945750825b801561089d5750815b80156108a65750805b955050505050915091565b60007f0000000000000000000000000000000000000000000000000000000000000000905090565b600047905090565b60008082815481106108f6576108f5611399565b5b9060005260206000200160009054906101000a900473ffffffffffffffffffffffffffffffffffffffff169050919050565b60008080549050905090565b600080805490508260008151811061094f5761094e611399565b5b602002602001015161096191906113f7565b9050600080828154811061097857610977611399565b5b9060005260206000200160009054906101000a900473ffffffffffffffffffffffffffffffffffffffff16905080600160006101000a81548173ffffffffffffffffffffffffffffffffffffffff021916908373ffffffffffffffffffffffffffffffffffffffff16021790555060008173ffffffffffffffffffffffffffffffffffffffff1647604051610a0c90611459565b60006040518083038185875af1925050503d8060008114610a49576040519150601f19603f3d011682016040523d82523d6000602084013e610a4e565b606091505b5050905080610a89576040517fe3f4b3c800000000000000000000000000000000000000000000000000000000815260040160405180910390fd5b8173ffffffffffffffffffffffffffffffffffffffff167fb112587e57bfa970257f3d54fc52859c6300f6bd7a982462c320fed45c2530ed60405160405180910390a26000600160146101000a81548160ff02191690836001811115610af257610af1610c40565b5b0217905550600067ffffffffffffffff811115610b1257610b11610d28565b5b604051908082528060200260200182016040528015610b405781602001602082028036833780820191505090505b5060009080519060200190610b56929190610b65565b50426002819055505050505050565b828054828255906000526020600020908101928215610bde579160200282015b82811115610bdd5782518260006101000a81548173ffffffffffffffffffffffffffffffffffffffff021916908373ffffffffffffffffffffffffffffffffffffffff16021790555091602001919060010190610b85565b5b509050610beb9190610bef565b5090565b5b80821115610c08576000816000905550600101610bf0565b5090565b6000819050919050565b610c1f81610c0c565b82525050565b6000602082019050610c3a6000830184610c16565b92915050565b7f4e487b7100000000000000000000000000000000000000000000000000000000600052602160045260246000fd5b60028110610c8057610c7f610c40565b5b50565b6000819050610c9182610c6f565b919050565b6000610ca182610c83565b9050919050565b610cb181610c96565b82525050565b6000602082019050610ccc6000830184610ca8565b92915050565b6000604051905090565b600080fd5b600080fd5b610cef81610c0c565b8114610cfa57600080fd5b50565b600081359050610d0c81610ce6565b92915050565b600080fd5b6000601f19601f8301169050919050565b7f4e487b7100000000000000000000000000000000000000000000000000000000600052604160045260246000fd5b610d6082610d17565b810181811067ffffffffffffffff82111715610d7f57610d7e610d28565b5b80604052505050565b6000610d92610cd2565b9050610d9e8282610d57565b919050565b600067ffffffffffffffff821115610dbe57610dbd610d28565b5b602082029050602081019050919050565b600080fd5b6000610de7610de284610da3565b610d88565b90508083825260208201905060208402830185811115610e0a57610e09610dcf565b5b835b81811015610e335780610e1f8882610cfd565b845260208401935050602081019050610e0c565b5050509392505050565b600082601f830112610e5257610e51610d12565b5b8135610e62848260208601610dd4565b91505092915050565b60008060408385031215610e8257610e81610cdc565b5b6000610e9085828601610cfd565b925050602083013567ffffffffffffffff811115610eb157610eb0610ce1565b5b610ebd85828601610e3d565b9150509250929050565b600080fd5b60008083601f840112610ee257610ee1610d12565b5b8235905067ffffffffffffffff811115610eff57610efe610ec7565b5b602083019150836001820283011115610f1b57610f1a610dcf565b5b9250929050565b60008060208385031215610f3957610f38610cdc565b5b600083013567ffffffffffffffff811115610f5757610f56610ce1565b5b610f6385828601610ecc565b92509250509250929050565b600073ffffffffffffffffffffffffffffffffffffffff82169050919050565b6000610f9a82610f6f565b9050919050565b610faa81610f8f565b82525050565b6000602082019050610fc56000830184610fa1565b92915050565b600080fd5b600067ffffffffffffffff821115610feb57610fea610d28565b5b610ff482610d17565b9050602081019050919050565b82818337600083830152505050565b600061102361101e84610fd0565b610d88565b90508281526020810184848401111561103f5761103e610fcb565b5b61104a848285611001565b509392505050565b600082601f83011261106757611066610d12565b5b8135611077848260208601611010565b91505092915050565b60006020828403121561109657611095610cdc565b5b600082013567ffffffffffffffff8111156110b4576110b3610ce1565b5b6110c084828501611052565b91505092915050565b60008115159050919050565b6110de816110c9565b82525050565b600081519050919050565b600082825260208201905092915050565b60005b8381101561111e578082015181840152602081019050611103565b8381111561112d576000848401525b50505050565b600061113e826110e4565b61114881856110ef565b9350611158818560208601611100565b61116181610d17565b840191505092915050565b600060408201905061118160008301856110d5565b81810360208301526111938184611133565b90509392505050565b6000602082840312156111b2576111b1610cdc565b5b60006111c084828501610cfd565b91505092915050565b60006040820190506111de6000830185610fa1565b6111eb6020830184610fa1565b9392505050565b60006060820190506112076000830186610c16565b6112146020830185610c16565b6112216040830184610c16565b949350505050565b6000819050919050565b61123c81611229565b82525050565b600067ffffffffffffffff82169050919050565b61125f81611242565b82525050565b600061ffff82169050919050565b61127c81611265565b82525050565b600063ffffffff82169050919050565b61129b81611282565b82525050565b600060a0820190506112b66000830188611233565b6112c36020830187611256565b6112d06040830186611273565b6112dd6060830185611292565b6112ea6080830184611292565b9695505050505050565b60008151905061130381610ce6565b92915050565b60006020828403121561131f5761131e610cdc565b5b600061132d848285016112f4565b91505092915050565b7f4e487b7100000000000000000000000000000000000000000000000000000000600052601160045260246000fd5b600061137082610c0c565b915061137b83610c0c565b92508282101561138e5761138d611336565b5b828203905092915050565b7f4e487b7100000000000000000000000000000000000000000000000000000000600052603260045260246000fd5b7f4e487b7100000000000000000000000000000000000000000000000000000000600052601260045260246000fd5b600061140282610c0c565b915061140d83610c0c565b92508261141d5761141c6113c8565b5b828206905092915050565b600081905092915050565b50565b6000611443600083611428565b915061144e82611433565b600082019050919050565b600061146482611436565b915081905091905056fea2646970667358221220b3e0db48c21b7ae963107099c985bb8c3f7514899e7ae47c889bc5fff9b858d564736f6c63430008080033",
  "devdoc": {
    "author": "Kalio753",
    "details": "Implement Chainlink VRF & Chainlink Keepers",
    "kind": "dev",
    "methods": {
      "checkUpkeep(bytes)": {
        "details": "This is fuction of Chainlink Keeper to check when to reload scripts When to update : 1. It's time (check time pass if greater than interval passed in) 2. Have at least 1 player & some ETH in the Lottery 3. Subscription should have some LINK (The service online) 4. The state of lotter should be 'open'"
      }
    },
    "title": "Auto Random Raffle Smart Contract",
    "version": 1
  },
  "userdoc": {
    "kind": "user",
    "methods": {},
    "notice": "This contract create a automatic random decetralized lottery for players to join",
    "version": 1
  },
  "storageLayout": {
    "storage": [
      {
        "astId": 204,
        "contract": "contracts/Raffle.sol:Raffle",
        "label": "s_players",
        "offset": 0,
        "slot": "0",
        "type": "t_array(t_address_payable)dyn_storage"
      },
      {
        "astId": 206,
        "contract": "contracts/Raffle.sol:Raffle",
        "label": "s_recentWinner",
        "offset": 0,
        "slot": "1",
        "type": "t_address"
      },
      {
        "astId": 209,
        "contract": "contracts/Raffle.sol:Raffle",
        "label": "s_raffleState",
        "offset": 20,
        "slot": "1",
        "type": "t_enum(RaffleState)199"
      },
      {
        "astId": 211,
        "contract": "contracts/Raffle.sol:Raffle",
        "label": "s_lastTimeStamp",
        "offset": 0,
        "slot": "2",
        "type": "t_uint256"
      }
    ],
    "types": {
      "t_address": {
        "encoding": "inplace",
        "label": "address",
        "numberOfBytes": "20"
      },
      "t_address_payable": {
        "encoding": "inplace",
        "label": "address payable",
        "numberOfBytes": "20"
      },
      "t_array(t_address_payable)dyn_storage": {
        "base": "t_address_payable",
        "encoding": "dynamic_array",
        "label": "address payable[]",
        "numberOfBytes": "32"
      },
      "t_enum(RaffleState)199": {
        "encoding": "inplace",
        "label": "enum Raffle.RaffleState",
        "numberOfBytes": "1"
      },
      "t_uint256": {
        "encoding": "inplace",
        "label": "uint256",
        "numberOfBytes": "32"
      }
    }
  }
}